:1000000007C1000034C1000032C1000030C100004F
:100010002EC100002CC100002AC1000028C1000030
:1000200026C1000024C1000022C1000020C1000040
:100030001EC100001CC100001AC1000018C1000050
:1000400016C100009FC5000012C1000010C10000D1
:100050000EC100000CC100000AC10000C2C40000B3
:1000600006C1000088C400005DC4000000C100009B
:10007000FEC00000FCC00000FAC00000F8C0000094
:1000800054C50000F4C00000F2C00000F0C0000041
:10009000EEC00000ECC00000EAC00000E8C00000B4
:1000A000E6C00000E4C0000013C50000E0C000008E
:1000B000DEC00000DCC00000DAC00000DCC40000CC
:1000C000D6C00000D4C00000D2C00000D0C00000E4
:1000D000CEC00000CCC00000CAC00000C8C00000F4
:1000E000C6C00000F602F902E802EC02F00230039A
:1000F000FD02010307030B030F03150319031D037F
:100100003003230327032B0300000A0B02090C0D05
:100110000E080703040100000000000000000000BA
:1001200000000000000000000000000000000000CF
:10013000000000001211100000000000000000008C
:1001400000000000000000000000000000000000AF
:100150002200250028002B002E003100340002016F
:100160000000050108010B01000021002400270008
:100170002A002D00300033000101000004010701B6
:100180000A0105050505070508080808020202021C
:100190000A0A080804040404010101010101010123
:1001A0000303030303030303040707070C0C0C0CEE
:1001B0000C0C0C0C020202020606060606060606D7
:1001C0000B0B0B0B0B0B0B0B010210202008081064
:1001D00020401020408002010201080402010102B7
:1001E0000408102040808040201008040201800490
:1001F00002018040201008040201080402010102EB
:100200000408102040800102040810204080EF05FF
:1002100011241FBECFEFD1E2DEBFCDBF00E00CBF87
:1002200012E0A0E0B2E0E2E6F4E100E00BBF02C0C1
:1002300007900D92A834B107D9F723E0A8E4B2E003
:1002400001C01D92A23DB207E1F711E0C8E0D1E084
:1002500000E005C021970109802FFE01C7D7C730F4
:10026000D10780E00807B1F7F9D40C942F0AC8CE63
:10027000E9EEF2E0A089B18982E08C93A485B5858E
:100280001C92A685B7858FEC8C93108EA489B589B6
:1002900086E08C93A289B3898C9180618C93A2892A
:1002A000B3898C9188608C93A289B3898C91806882
:1002B0008C930288F389E02D80818F7D808308955F
:1002C000CF92DF92EF92FF920F931F932FB7F89484
:1002D000C090E502D090E602E090E702F090E802DC
:1002E0002FBFDC01CB018C0D9D1DAE1DBF1D4FB777
:1002F000F8940091E5021091E6022091E702309116
:10030000E8024FBF0C151D052E053F0528F080178C
:100310009107A207B30758F71F910F91FF90EF9035
:10032000DF90CF900895CF92DF92EF92FF920F93DC
:100330001F93CF93DF936C017A018B01C0E0D0E073
:10034000CE15DF0589F0D8016D918D01D601ED91B3
:10035000FC910190F081E02DC6011995892B11F4D3
:100360007E0102C02196ECCFC701DF91CF911F9192
:100370000F91FF90EF90DF90CF900895089580E067
:1003800090E00895FC01538D448D252F30E0842F9B
:1003900090E0821B930B541710F0CF9608950197AD
:1003A0000895FC01918D828D981761F0828DDF0197
:1003B000A80FB11D5D968C91928D9F5F9F73928F58
:1003C00090E008958FEF9FEF0895FC01918D828D4D
:1003D000981731F0828DE80FF11D858D90E008951A
:1003E0008FEF9FEF0895FC01918D228D892F90E072
:1003F000805C9F4F821B91098F739927089589EE26
:1004000092E0F1DF21E0892B09F420E0822F0895AA
:10041000FC01848DDF01A80FB11DA35ABF4F2C91A1
:10042000848D90E001968F739927848FA689B78970
:100430002C93A089B1898C9180648C93938D848D49
:10044000981306C00288F389E02D80818F7D808318
:100450000895EF92FF920F931F93CF93DF93EC01D8
:1004600081E0888F9B8D8C8D981305C0E889F98970
:10047000808185FD23C0F62E0B8D10E00F5F1F4F8E
:100480000F731127E02E8C8DE8120BC00FB607FCFE
:10049000FACFE889F989808185FFF5CFCE01B8DFF1
:1004A000F2CF8B8DFE01E80FF11DE35AFF4FF08272
:1004B0000B8FEA89FB898081806207C0EE89FF8902
:1004C0006083E889F98980818064808381E090E09D
:1004D000DF91CF911F910F91FF90EF900895CF93EF
:1004E000DF93EC01888D8823C1F0EA89FB89808144
:1004F00085FD05C0A889B9898C9186FD0EC00FB60F
:1005000007FCF5CF808185FFF2CFA889B9898C914E
:1005100085FFEDCFCE017CDFE8CFDF91CF9108954D
:1005200080E090E0892B19F06ADF811125C080E01E
:1005300090E0892B41F080E090E0892B21F00E942F
:10054000000081111CC080E090E0892B41F080E028
:1005500090E0892B21F00E940000811113C080E0FF
:1005600090E0892BA1F080E090E0892B81F00E943F
:10057000000081110AC008950E940000D8CF0E9497
:100580000000E1CF0E940000EACF0C940000089523
:10059000362F90E0FC01E85FFE4F4491FC01E853E8
:1005A000FE4F2491FC01EE57FE4F9491992309F4DC
:1005B0006AC0442309F454C050E0FA013197E23193
:1005C000F10508F04DC08827EE58FF4F8F4F0EC63B
:1005D000809180008F7707C0809180008F7D03C05D
:1005E00080918000877F809380003AC084B58F77A8
:1005F00002C084B58F7D84BD33C08091B0008F77F9
:1006000003C08091B0008F7D8093B00029C080919D
:1006100090008F7707C0809190008F7D03C08091FC
:100620009000877F809390001BC08091A0008F77FF
:1006300007C08091A0008F7D03C08091A000877FBC
:100640008093A0000DC0809120018F7707C080911A
:1006500020018F7D03C080912001877F809320013E
:10066000E92FF0E0EE0FFF1FE25BFE4FA591B49182
:100670008FB7F894EC91311103C020952E2301C05F
:100680002E2B2C938FBF0895CF92DF92EF92FF9283
:10069000CF93DF93EC01603282E078070CF042C028
:1006A0008A819B816B01681779070CF46C012881A2
:1006B0003981C6012C153D050CF4C9019D838C833D
:1006C0002F81A8E8B0E06D01C21AD10827FDD394AC
:1006D000D601AA0FBB1FAA0FBB1F6D01BB0FEE08EF
:1006E000FF08488528E532E0241B310947FD339592
:1006F000220F331F220F331FA901330F660B770B15
:100700009A01AB012C193D094E095F09DC014DD559
:1007100024EB30E040E050E022D5C20ED31EE41EB0
:10072000F51EB6018E81803380F59F8148E850E048
:10073000491B510997FD5395440F551F440F551FF1
:100740006417750784F09885E8E5F2E0E91BF10984
:1007500097FDF395EE0FFF1FEE0FFF1FAB01E6179E
:10076000F7070CF4AF0142505109440F551F2FB742
:10077000F89490E0FC01EE0FFF1F8E0F9F1FFC010D
:10078000EF5AFD4F528341832FBFDF91CF91FF90EE
:10079000EF90DF90CF900895CF92DF92EF92FF928B
:1007A0000F931F93CF93DF936C018B017A01EC01C0
:1007B000C85BDD4F888187FF04C0FB011182108276
:1007C00024C08CE08C9D90018D9D300D112488817A
:1007D000A901480F511D87FD5A958091E10290E0D3
:1007E0004817590794F48881A901480F511D87FDC6
:1007F0005A95CA01FA01EE0FFF1F8E0F9F1FFC01D1
:10080000EF5AFD4F808186FD19C088818F5F8883F4
:100810008CE08C9D90018D9D300D11248881A90163
:10082000480F511D87FD5A958091E10290E04817CD
:100830005907B4F488818C303CF112C08881280FAC
:10084000311D87FD3A95F901EE0FFF1F2E0F3F1F57
:10085000F901EF5AFD4F808160E08F7399DED5CFAB
:10086000F80180819181049680349C4918F480E4D9
:100870009CE904C0F801808191810496F70191837D
:1008800080838FEF888344C0F80140815181888143
:10089000B901680F711D87FD7A95CB01FB01EE0F41
:1008A000FF1F8E0F9F1FFC01EF5AFD4F8181928128
:1008B000840F951FF701918380838881A901480FD8
:1008C000511D87FD5A95CA01FA01EE0FFF1F8E0FC9
:1008D0009F1FFC01EF5AFD4F808186FF19C0888160
:1008E000280F311D87FD3A95F901EE0FFF1F2E0FDE
:1008F0003F1FF901EF5AFD4F808161E08F73DF9157
:10090000CF911F910F91FF90EF90DF90CF9040CE4D
:10091000DF91CF911F910F91FF90EF90DF90CF90DB
:10092000089599D51F920F920FB60F9211240BB60E
:100930000F922F933F934F935F936F937F938F9378
:100940009F93AF93BF93EF93FF9389EE92E060DDA7
:10095000FF91EF91BF91AF919F918F917F916F9197
:100960005F914F913F912F910F900BBE0F900FBE53
:100970000F901F9018951F920F920FB60F9211248F
:100980000BB60F922F938F939F93EF93FF93E0916A
:10099000F902F091FA028081E091FF02F0910003E8
:1009A00082FD12C09081809102038F5F8F7320912E
:1009B0000303821751F0E0910203F0E0E751FD4F8D
:1009C000958F8093020301C08081FF91EF919F91E9
:1009D0008F912F910F900BBE0F900FBE0F901F9015
:1009E00018951F920F920FB60F9211242F933F93D9
:1009F0008F939F93AF93BF938091E5029091E6020E
:100A0000A091E702B091E8023091500223E0230F59
:100A10002D3720F40196A11DB11D05C026E8230F36
:100A20000296A11DB11D209350028093E502909380
:100A3000E602A093E702B093E80280914C02909105
:100A40004D02A0914E02B0914F020196A11DB11D21
:100A500080934C0290934D02A0934E02B0934F02AC
:100A6000BF91AF919F918F913F912F910F900FBEAA
:100A70000F901F9018951F920F920FB60F9211248E
:100A80000BB60F922F933F934F935F936F937F9388
:100A90008F939F93AF93BF93EF93FF9348E251E0FF
:100AA00064E271E080E090E077DEFF91EF91BF912A
:100AB000AF919F918F917F916F915F914F913F91F6
:100AC0002F910F900BBE0F900FBE0F901F90189597
:100AD0001F920F920FB60F9211240BB60F922F9305
:100AE0003F934F935F936F937F938F939F93AF93B6
:100AF000BF93EF93FF9348EA50E064EA70E083E02D
:100B000090E04ADEFF91EF91BF91AF919F918F915D
:100B10007F916F915F914F913F912F910F900BBEFD
:100B20000F900FBE0F901F9018951F920F920FB647
:100B30000F9211240BB60F922F933F934F935F9315
:100B40006F937F938F939F93AF93BF93EF93FF9395
:100B500048E950E064E970E082E090E01DDEFF913A
:100B6000EF91BF91AF919F918F917F916F915F9125
:100B70004F913F912F910F900BBE0F900FBE0F9092
:100B80001F9018951F920F920FB60F9211240BB65B
:100B90000F922F933F934F935F936F937F938F9316
:100BA0009F93AF93BF93EF93FF9348E850E064E8BF
:100BB00070E081E090E0F0DDFF91EF91BF91AF91A7
:100BC0009F918F917F916F915F914F913F912F9165
:100BD0000F900BBE0F900FBE0F901F901895E9EE6F
:100BE000F2E01382128288EE93E0A0E0B0E084830A
:100BF0009583A683B78388E292E09183808385EC16
:100C000090E09587848784EC90E09787868780ECD6
:100C100090E0918B808B81EC90E0938B828B82ECC7
:100C200090E0958B848B86EC90E0978B868B118E71
:100C3000128E138E148EE6E8F3E016821782108669
:100C40001186128613861486158616861786108AD4
:100C5000118A128A138A148A158A0895CF93DF9312
:100C6000CDB7DEB728970FB6F894DEBF0FBECDBF65
:100C7000789484B5826084BD84B5816084BD85B577
:100C8000826085BD85B5816085BD80916E00816083
:100C900080936E0010928100809181008260809329
:100CA000810080918100816080938100809180002B
:100CB0008160809380008091B10084608093B10056
:100CC0008091B00081608093B0008091910082603B
:100CD0008093910080919100816080939100809138
:100CE00090008160809390008091A1008260809349
:100CF000A1008091A10081608093A1008091A0005B
:100D000081608093A0008091210182608093210105
:100D10008091210181608093210180912001816077
:100D20008093200180917A00846080937A00809182
:100D30007A00826080937A0080917A00816080934B
:100D40007A0080917A00806880937A001092C100C6
:100D50001092CA031092CB031092CC031092CD03D1
:100D6000109288031092890310928A0310928B03C9
:100D700068EB7BE080E090E0A3DA89EE92E090936C
:100D8000C9038093C80374DA8091C8039091C903A2
:100D9000DC01ED91FC910280F381E02D41E150E016
:100DA00066E372E019956AE070E080E090E088DA2E
:100DB0005FDA86E08093E4028CE090E01FD29093AB
:100DC000E3028093E2025CE0652E52E0752E60E063
:100DD000E62E62E0F62E00E033243A9478EB872E7C
:100DE0007BE0972EECE05E2E12E0F4EBCF2ED12CC0
:100DF00089E090E003D25C018091E102803390F4BD
:100E000091E0980F9093E102F501868390E0FC0158
:100E1000EE0FFF1F8E0F9F1FFC01EF5AFD4F9282B6
:100E2000818203C0D50116963C926AE570E0C50147
:100E30002BDCA70140505240E091E202F091E30226
:100E4000E40FF51FB182A082F301219131913F019E
:100E5000E091E202F091E302E40FF51FA081B1817D
:100E600016968C911697803308F073C0C9019927A4
:100E7000FC01E853FE4F4490FC01EE57FE4F849175
:100E80008823A1F090E0880F991FFC01E859FE4FDC
:100E900065917491FC01E25BFE4FA590B4908FB711
:100EA000F894FB019081492A40828FBF16968C915D
:100EB0001697682F70E0FB01EE0FFF1FE60FF71F7C
:100EC000EF5AFD4F2F739081907C292B208317962A
:100ED0001C92179718961C921897652D7BD19CE051
:100EE000899F9001112438872F8360E070E02F8163
:100EF0003885260F371F5901AA0CBB1C2A0D3B1D34
:100F00002F5A3D4FF901908196FD16C06F5F7F4FBC
:100F10006C30710561F7813009F0D5C01092800006
:100F2000109381001092850010928400B19A8091F4
:100F30006F00826080936F001696EC91F0E0CF0115
:100F4000880F991FE80FF91FEF5AFD4F80818064C9
:100F500080838091E2029091E302053061F4FC010C
:100F6000E40FF51F0190F081E02D138212822AE533
:100F700030E031832083FC01E40FF51F0190F08104
:100F8000E02D9701D7018D919D917D0193838283FF
:100F9000D9018D919C919601281B390B31832083B7
:100FA0000F5F063009F024CF46E0E42E5EEC852E7C
:100FB00099249394A12CB12C6DEC462E5524539476
:100FC000612C712CEEE1F2E0DE0111968E2D019084
:100FD0000D928A95E1F7F12C8091E402F81608F061
:100FE00070C00F2D10E0E1E0F0E0EC0FFD1FE00F0E
:100FF000F11F8081863308F0865390917B00282F63
:101000002870977F922B90937B00877080648093E9
:101010007C0080917A00806480937A0080917A00CD
:1010200086FDFCCF609178008091790070E0782B8C
:10103000623332E07307BCF0CB01770FAA0BBB0B16
:1010400082539240A109B109BC01CD01660F771FFF
:10105000881F991FA301920182D0DA01C90101966C
:10106000A11DB11D16C06F3C81E07807A4F4CB012F
:10107000770FAA0BBB0BBC01CD01660F771F881F32
:10108000991FA50194016BD0DA01C9010397A10949
:10109000B1099C0102C020E030E0000F111FE09177
:1010A000E202F091E302E00FF11F80819181DC0107
:1010B00014966D917C911597620F731FE5DAF39486
:1010C0008BCF2EDA7FCF823061F410929000809324
:1010D0009100109295001092940088BB809371004B
:1010E0002BCF833061F41092A0001093A1001092D6
:1010F000A5001092A40019BB109372001DCF81119E
:101100001BCF109220011093210110922501109203
:1011100024011ABB109373000FCFA1E21A2EAA1B51
:10112000BB1BFD010DC0AA1FBB1FEE1FFF1FA21797
:10113000B307E407F50720F0A21BB30BE40BF50B94
:10114000661F771F881F991F1A9469F7609570951D
:10115000809590959B01AC01BD01CF010895052EAE
:1011600097FB16F400940FD057FD05D0D6DF07FC8F
:1011700002D046F408C050954095309521953F4FD8
:101180004F4F5F4F089590958095709561957F4F73
:101190008F4F9F4F08950FD0A59F900DB49F900D36
:1011A000A49F800D911D11240895B7FFF4CFF3DFA4
:1011B000821B930B0895A29FB001B39FC001A39F10
:1011C000700D811D1124911DB29F700D811D112480
:1011D000911D0895991B79E004C0991F961708F096
:1011E000961B881F7A95C9F780950895EE0FFF1F0B
:1011F000881F8BBF0790F691E02D1994CF93DF9352
:101200008230910510F482E090E0E091D003F091FB
:10121000D10320E030E0C0E0D0E0309711F1408110
:10122000518148175907C0F04817590761F4828166
:101230009381209719F09B838A832BC09093D103CD
:101240008093D00326C02115310519F042175307AA
:1012500018F49A01BE01DF01EF010280F381E02D55
:10126000DCCF2115310509F1281B390B243031055C
:1012700090F412968D919C9113976115710521F050
:10128000FB019383828304C09093D1038093D003A6
:10129000FD01329644C0FD01E20FF31F819391934B
:1012A000225031092D933C933AC02091CE033091C6
:1012B000CF03232B41F420911A0230911B0230936B
:1012C000CF032093CE0320911802309119022115EB
:1012D000310541F42DB73EB740911C0250911D02DB
:1012E000241B350BE091CE03F091CF03E217F307F7
:1012F000A0F42E1B3F0B2817390778F0AC014E5F86
:101300005F4F2417350748F04E0F5F1F5093CF03F0
:101310004093CE038193919302C0E0E0F0E0CF01CF
:10132000DF91CF9108950F931F93CF93DF93009791
:1013300009F48CC0FC013297138212820091D00311
:101340001091D1030115110581F420813181820FA3
:10135000931F2091CE033091CF032817390779F5D9
:10136000F093CF03E093CE0371C0D80140E050E08A
:10137000AE17BF0750F412962D913C911397AD0113
:101380002115310509F1D901F3CF9D01DA0133832C
:10139000228360817181860F971F8217930769F4FA
:1013A000EC0128813981260F371F2E5F3F4F318393
:1013B00020838A819B8193838283452B29F4F09338
:1013C000D103E093D00342C01396FC93EE9312979F
:1013D000ED01499159919E01240F351FE217F30742
:1013E00071F480819181840F951F029611969C93D0
:1013F0008E938281938113969C938E931297E0E053
:10140000F0E0D80112968D919C911397009719F0F6
:10141000F8018C01F6CF8D919C9198012E5F3F4F82
:10142000820F931F2091CE033091CF0328173907E5
:1014300069F4309729F41092D1031092D00302C0BE
:10144000138212821093CF030093CE03DF91CF91CA
:101450001F910F91089581E090E0F89400C0F894F6
:02146000FFCFBC
:101462000A00140014001400140014000300050004
:10147200060009000A000B000000D2038000363784
:1014820038393A3B0000000029029301C2016F0281
:10149200F301D101E501564D4450565F317C305F76
:0814A200564D4450560D0A009E
:00000001FF
